:020000040001F9
:10800000C8380020358101004F81010051810100F5
:108010000000000000000000000000000000000060
:10802000000000000000000000000000538101007B
:108030000000000000000000558101005781010090
:1080400059810100598101005981010059810100C4
:10805000598101000000000059810100598101008F
:1080600059810100598101005981010059810100A4
:108070005981010059810100598101005981010094
:10808000ED8C0100C98B010059810100598101006B
:10809000E98B0100598101003D8C010059810100EB
:1080A000598101005981010000000000000000001A
:1080B00000000000000000000000000000000000C0
:1080C0000348854600F0B4FC0048004771E4010015
:1080D000C8380020401E00BF00BF00BF00BF00BF67
:1080E00000BF00BF00BF00BF00BF00BF00BFF1D195
:1080F00070470000401E00BF00BF00BF00BF00BFB0
:1081000000BF00BF00BF00BF00BF00BF00BFF1D174
:1081100070470000401E00BF00BF00BF00BF00BF8F
:1081200000BF00BF00BF00BF00BF00BF00BFF1D154
:10813000704700000321094802680A4302600848AA
:1081400002680A4302600748804707480047FEE785
:10815000FEE7FEE7FEE7FEE7FEE70000240500403D
:1081600054050040998C0100C180010030B50B46D8
:10817000014600202022012409E00D46D5409D4201
:1081800005D31D469540491B254695404019154687
:10819000521E002DF1DC30BD70B5002425460028AC
:1081A00001DA01244042002901DA01254942FFF7A2
:1081B000DDFFAC4200D04042002C00D0494270BDEF
:1081C00010B5431A934209D28318881803E0401E61
:1081D00001785B1E1970521EF9D210BD03460B4385
:1081E0009B0703D009E008C9121F08C0042AFAD26D
:1081F00003E00B780370401C491C521EF9D210BDDD
:10820000D2B201E00270401C491EFBD2704700222E
:10821000F6E710B513460A4604461946FFF7F0FF85
:10822000204610BD10B5044605E00B780370401CD5
:10823000002B00D0491C521EF7D2204610BD421C14
:108240000178401C0029FBD1801A704730B50446E4
:108250000020034600E05B1C934203D2E05CCD5C4F
:10826000401BF8D030BDF8B502464A40D40F42005A
:108270004B0052085B089A4202D202460846114659
:108280004A0023D0C30D4A00DDB2120EAD1A202DD4
:1082900035DA49020126490AF6058A19002C00D070
:1082A000524220214F1B1146B9402A411018C20DDD
:1082B0009A4221D0002C17D0012D08DCDA05801A53
:1082C000D20F8019D207DBB200F053F9F8BDDA05FE
:1082D000801A012340001B06C01880185A428018DB
:1082E000CA0F1043490007E04908C2071143DA05E5
:1082F000801A80194008801800F033F9F8BD610039
:108300000122511A001BF7E70122D2075140AAE7C8
:108310000122D2075040A6E7024670B54A40D30F6B
:10832000DB0740002DD04A002AD0010E140E0002B7
:1083300012020919400A520A8418E50104465443FE
:10834000000A120A2E045043A4194219200CC543F6
:10835000AA18120C0125AD03521C521912047F39C0
:10836000240400D0521C104301D44000491EC2B264
:108370000C06C0092018401C4008802A02D003E0E7
:10838000002070BD40084000002900DA002018439A
:1083900070BD70B502464A40D50F40004A00ED0757
:1083A00040085208002814D0002A12D0C40DD30D62
:1083B00041020120C0055202490A520AE41A091872
:1083C00012187D34914201D3641C00E04900002C56
:1083D00001DA002070BD0023914201D3891A0343C2
:1083E000400849000028F7D100290AD0914202D163
:1083F0000121C90705E0914201D2012101E00121DB
:10840000C943E005C018401900F0ABF870BD420048
:1084100005D04200120E52428A4201DB0020704712
:10842000C9050818704770B54B005B0803430BD0B3
:108430004B005C0D002633466542B341D417AD1A9C
:10844000A34102DB0020014670BD120530185141E6
:1084500070BD10B500229623114600F08AF810BDB9
:108460000EB505490291002100910A460B46019183
:1084700000F0C5F803B000BD330400004100400225
:108480000122400AD205090E80187F2901DA002056
:108490007047962903DC9622511AC84070479639D6
:1084A000884070474A0009030123090B1B05194343
:1084B000094B10B5520D9A4201DA002010BD064B4F
:1084C00034339A4203DC9A1A00F03AF810BD03499B
:1084D0005118884010BD0000FF030000CDFBFFFFD6
:1084E000F0B51FB40646002082B005464024019135
:1084F00000901BE0019922460F46304600F020F81C
:10850000049A059B801A994110D3104619462246B9
:1085100000F0A0FA361A8F4101972246012000216F
:10852000009F00F097FA38184D4100902046641ED5
:108530000028DFDC019B00982946324607B0F0BDD9
:1085400010B5202A04DB0846203AD040002110BD97
:108550000B46D340D0402024A21A9140084319462C
:1085600010BD002904DA401C490001D14008400038
:10857000704770B40024050C05D11024000402D10A
:10858000002921D01124050E01D100020834050F65
:1085900001D10001241D850F01D18000A41C0028F9
:1085A00001DB4000641C002908D020252E1B0D464D
:1085B000F540A14000D001212943084301061B1BBF
:1085C000000ADB1D02D5002070BC7047DB051818BF
:1085D00080180029F8DA401C4900F5D170BC400829
:1085E0004000704710B5002B08DA0024401C6141A0
:1085F00092185B411A4301D14008400010BDF0B50C
:108600001FB482B005460C0003D0084600F09CFB66
:1086100002E000F099FB20300246009021462846F7
:1086200000F018FA049B059A04460F4618431143BC
:10863000084314D0184610431BD0009840210A1A52
:1086400018460599FFF77CFF05460E46009A0599E6
:10865000049800F0FFF9084305D0012004E020460B
:10866000394607B0F0BD0020C11705430E432C4327
:10867000374300990E986305401A7905E40A0022F1
:108680000C43FD0A0A3002D500200146E9E7010546
:10869000101969410C9C0D9D00196941FFF7A2FF5B
:1086A000DFE70000F0B507460846584087B0C00F26
:1086B000049048000E46590040084908BC1A8841F9
:1086C00005D2384631461E4617460B46024658002C
:1086D000400810434CD0300D039040055900400D28
:1086E000490D0590401A0290402872DA18030121C2
:1086F000000B09050843019004980092002805D05A
:108700000199524200208841009201900298402134
:108710000A1A0199009800F09DF905460C466B462F
:1087200007CB00F0A7F9C0197141039A0E0D002381
:10873000D71756401A467A40164344D0049A002A66
:108740002DD0029A012A039A15DC1205C01A914114
:1087500001263605001C7141D20F059ED2070093F9
:10876000019202962A462346FFF749FF07B0F0BD63
:1087700038463146FAE71605224A0F46B218C01AA3
:10878000B74101210905001C4F4100187F411146E6
:1087900018187941E20F10436D19644113E0E207A4
:1087A0006D0815436408C2071443039A0126120595
:1087B000C01A91413605001C7141CE074008304374
:1087C0004908C01851412A462346FFF70BFFCDE761
:1087D000FFE7049801224000C117121A00238B41C1
:1087E00004983146C417381AA141EEE730B4012489
:1087F000E407634030BC55E730B40124E40761402E
:1088000030BC4FE70000E0FFF0B51FB488B00B9913
:108810000998002448400999C00F49004908099166
:10882000C0070B990090490049080B9109990898D5
:10883000A64608431CD00B990A98084318D00998FB
:1088400001244000420D4800410D09982405000311
:10885000000B204309900B980003000B20430B9062
:1088600050181C494018002201901446104605E09B
:10887000002001460DB0F0BD032801DA034600E0F8
:1088800003239C46C11A0AAE0AE05F0008ADED5B07
:108890004F00F75B7D430027AA187C41491C5B1EF3
:1088A0006145F2DD410004AB5A522104120C0A4327
:1088B000240C401C0828DFDB0198029000997046C8
:1088C00001910090059B049A07990698FFF797FE7F
:1088D000D0E700000DFCFFFFF0B50C465C4085B012
:1088E000E40FE40703944C00002664085900944602
:1088F000490802460296224321D062460A431ED00E
:108900006200570D4A000E032303550D0124024651
:108910002C492405781B1B0B360B40182343264398
:10892000614600901C46501AB44103D30098401C85
:10893000009002E0921800985B41002803DA0020C2
:10894000014605B0F0BD0020012109050746864615
:1089500011E064461D46141BB54106D36546521B03
:10896000B341744607430C43A646CD074008490867
:10897000284392185B4105460D43EAD1104618433F
:1089800013D06046194650407140084306D06046F7
:10899000101AB34106D20122002306E0002201236F
:1089A000DB0702E00122D243531000987446010510
:1089B000381C6141029C039D00196941FFF712FEBA
:1089C000BFE70000FD0300004A0009030123090B73
:1089D0001B0519430A4B10B5520D9A4202DA0020CA
:1089E000014610BD064B34339A4203DC9A1AFFF756
:1089F000A7FD10BD034BD21800F02CF810BD0000ED
:108A0000FF030000CDFBFFFF10B5002904DB0124AC
:108A1000E40740428C412146002B04DB1C46012325
:108A2000DB075242A341994200D1904210BD0000A1
:108A3000064C0125064E05E0E36807CC2B430C3CB1
:108A400098471034B442F7D3FFF73EFBDC13020023
:108A5000FC13020010B5202A04DB0146203A9140A5
:108A6000002010BD914020239C1A0346E340194387
:108A7000904010BD10B5202A06DBCB170846203ADF
:108A80001041C1170B4306E00B461341D040202490
:108A9000A21A91400843194610BD00000EB5C21736
:108AA000C10F5040CA0740180021054B02930192A4
:108AB00000910A460B46FFF7A2FD03B000BD00007F
:108AC0003304000070B5CD0F4A0009030123090BE0
:108AD0001B0519430B4BED070024520D9A4201DA96
:108AE000002070BD074B34339A4203DC9A1AFFF71B
:108AF00027FD02E00449511888402C43F1D0404240
:108B000070BD0000FF030000CDFBFFFF30B58C18E7
:108B10000278401C13071B0F01D10378401C120977
:108B200006D10278401C03E005780D70401C491CFA
:108B30005B1EF9D101E00B70491C521EFBD1A14212
:108B4000E6D3002030BD0140824308461043704701
:108B50001040914308437047484050407047D2430B
:108B600010434840704700008307FF22DB0E9A4005
:108B70008907090E994000280BDA0007000F083812
:108B8000830808489B001818C36993430B43C361CB
:108B90007047830804489B001B18186890430843DB
:108BA0001860704700ED00E000E400E0BFF34F8F75
:108BB00004490348C860BFF34F8F00BFFDE70000C2
:108BC0000400FA0500ED00E010B506490020086039
:108BD00048608860C860034940390860486007F011
:108BE00083FA10BD40110140FEB50020C043124D74
:108BF00002906869019068462E6904F061F80746A2
:108C000005F042FA0446002F08D002AA0199009804
:108C100004F0ECFD029805F081FA06E0029805F0F8
:108C20007DFA002801D1002C02D0304603F052F921
:108C300000206871FEBD00004C21002010B50848DE
:108C40004068002808D08047002804D0FF2105A2F2
:108C50002A3101F0EDF910BD05F004F910BD000056
:108C60002C210020736F757263655C6C69627261A0
:108C7000726965735C736F66746465766963655C5D
:108C8000736F66746465766963655F68616E646C52
:108C900065722E630000000010B505F04BF9002846
:108CA00005D00E490C484860C8130D4988610D482D
:108CB000018CC9B201290ED1818C09070BD1018D1C
:108CC0000906090F042906D1808D0006000F02D184
:108CD00005490120886010BDDFFF07C00005004086
:108CE000006C0040C00F00F00006004010B51821D5
:108CF00001A007F0A7FB10BD736F757263655C6D13
:108D000061696E5C7764742E63203A202564202D9F
:108D10002D3E205744542048414E444C45520D0AA4
:108D20000000000037B514460846064B6A46214647
:108D300000F04CFC04466946002000F0E3FF2046AA
:108D40003EBD0000059D01002021020C01D0102134
:108D50001046020A01D010460839020901D0104617
:108D6000091F820801D01046891E420801D0881EC2
:108D70007047081A7047F0B4040C8BB2264682B2D2
:108D80005E430D0C1046370C584336048019002101
:108D9000794116466E43370C3604801979412646D0
:108DA0006E438919F0BC704730B47446641E257850
:108DB000641CAB4200D21D46635D5B00E31830BC0F
:108DC000184700004900CA020243100000D00420E6
:108DD0004A0D01D001221043044A490D914201D1AC
:108DE00002210843012800D105207047FF07000039
:108DF000F7B596B014460021A160D160179909918A
:108E00004D00CD496D088D4205DC179961602060E9
:108E1000002019B0F0BDC949C94E8D4238DAD327B8
:108E200009997F050029C74A1799334617DDFFF7CF
:108E3000DDFCB54206D0C44AC44BFFF7D7FC6160E5
:108E4000206009E03A46C14BFFF7D0FCC04AC14B55
:108E5000FFF7CCFC61602060012019B0F0BDFFF786
:108E600021FCB54206D0B84AB84BFFF71BFC616045
:108E7000206009E03A46B54BFFF714FCB44AB54B05
:108E8000FFF710FC616020600020C04319B0F0BD06
:108E9000B1498D42179977DC490049080746AF4A26
:108EA000AF4B0491FFF7B0FC0022AE4BFFF7FAFB8B
:108EB000FFF708FE0A90FFF7F1FDA24A334603913F
:108EC0000290FFF7A1FC3A46049BFFF795FC06468B
:108ED0000F469D4A9D4B03990298FFF795FC2A0D7A
:108EE00001250C9232463B46FFF786FC616020600C
:108EF000032D39D04800410D0C98401A69016918BA
:108F00001139814230DA98492801794408960D9048
:108F1000081804974368026803990298FFF774FCE5
:108F200002460B460791069004990898FFF75EFCED
:108F300006460F46049B089AFFF75EFC079B069ABD
:108F4000FFF754FC05918949049079440D98401825
:108F5000C368826803990298FFF756FC059B049A40
:108F6000FFF744FC6D1CBDE70998002809DA0122CF
:108F70006068D207504060600A9819B04042F0BD66
:108F800002E00A9819B0F0BD09030122090B12058D
:108F90000E9089181798109140007549400D40189F
:108FA0004111C006C00E0D9113902021081A149093
:108FB0000020069005250790139800280D980CD0E6
:108FC000401982006B487844875813998F401018D5
:108FD00041681498C1400F4304E04019810066487D
:108FE0007844475810993846FFF7C5FE06460A915F
:108FF00038460E99FFF7BFFE8A190A9B8A4201D2B2
:10900000012100E00021C9188C46AF00694679189B
:109010008B684E68C318834201D2012000E0002013
:1090200096193618002802D0964202D903E09642DB
:1090300001D2012000E00020624612184E6068460E
:109040008B60C25128466D1E0028B5DC01210298B4
:1090500049074018800F1390029805998000039EDD
:10906000049D0B91FFF71AFD074630460891FFF764
:10907000F7F91D22D243FFF7D6F910900F91284639
:10908000FFF7EEF93D22D243FFF7CDF90E900D9197
:109090000B98FFF7E5F95D22D243FFF7C4F90B9176
:1090A0000C900D9B0E9AFFF7FDFA0F9B109AFFF79D
:1090B000F9FA3A46089BFFF7F5FA00250E463A46BC
:1090C0002846089BFFF792FB0F9B109AFFF78EFB39
:1090D0000D9B0E9AFFF78AFB0B9B0C9AFFF78CFBFC
:1090E000264A274BFFF790FB07460D91254A264B52
:1090F00031462846FFF788FB3A460D9BFFF7D2FA28
:109100000F4615220C9092061D4B31462846FFF75C
:109110007BFB3B460C9AFFF7C5FA179A002A05DA43
:10912000139A524213920122D2075140616020608B
:10913000139819B0F0BD0000FB21E93F7CD9024033
:10914000FB21F93F000040543163621A61B4D03D05
:109150007370032E8A19A33BFB21394183C8C96D63
:10916000305FE43F0000E03F9A7900005A79000048
:109170000BFCFFFF0E790000F4780000182D44541A
:10918000FB21F93D3326A611460B113CF0B51FB467
:109190004E00F9207608800584B00F46864204DA36
:1091A0000498FFF78FFC002838D0049A3B461046FD
:1091B0001946FFF729FB044602462C480D460B468C
:1091C0000621784400F05CF822462B46FFF71CFB92
:1091D000019100903946079B069A0498FFF714FB0B
:1091E0000746029120462946019B009AFFF70CFB97
:1091F0003A46029BFFF7FAFA074600220091D24353
:1092000020462946FFF70FF9194A96420ADA3A46EC
:10921000009BFFF7EBFA0022164B23E000201549D4
:1092200009B0F0BD144A964202DD0024134D03E05C
:1092300001225205B51A002422462B46FFF7D6FA22
:109240000646019122462B4600200A49FFF7CEFA36
:109250000D4604463A463046009B0199FFF7C6FA90
:1092600022462B46FFF7C8FA09B0F0BDB2760000DF
:109270003333D33F0000F03F0000E93F0000D23F0E
:10928000F8B504464F1EC8000838211815461E467A
:10929000086849683A4606239A4310D02A4633465E
:1092A000FFF7B2FA3A46D200083AA3181A687F1EAE
:1092B0005B68FFF7F7F906223B469343EED1022F96
:1092C00023D0042F11D0062F2FD12A463346FFF783
:1092D0009BFAE36AA26AFFF7E5F92A463346FFF7ED
:1092E00093FA636A226AFFF7DDF92A463346FFF7ED
:1092F0008BFAE369A269FFF7D5F92A463346FFF7EF
:1093000083FA63692269FFF7CDF92A463346FFF7EE
:109310007BFAE368A268FFF7C5F92A463346FFF7F0
:1093200073FA63682268FFF7BDF9F8BDF0B51FB4A2
:10933000054648000C46F9214008890586B0884258
:109340000BDA28462146FFF73DFD042801D100F045
:1093500071F8284621460BB0F0BD2A462346104638
:109360001946FFF751FA06460F462A462346FFF7ED
:109370004BFA00902548019132463B46052178443E
:10938000FFF77EFF029010980391002829D0204A11
:10939000204B01990098FFF737FA04900591684631
:1093A0000FC8FFF731FA002201910090D2430999CA
:1093B0000898FFF738F8019B009AFFF717FA324632
:1093C0003B46FFF721FA099B089AFFF70FFA059B26
:1093D000049AFFF70BFA2A462346FFF70DFA0BB063
:1093E000F0BD0B4630463946029AFFF70DFA084A9F
:1093F000084BFFF757F9019B009AFFF705FA2A4639
:109400002346FFF74FF90BB0F0BD0000EE750000EA
:10941000495555555555C5BF10B50122FFF703F8FD
:1094200010BD002210B5134610461146FFF754FA3E
:1094300010BD0000034A10B500201107FEF7F3FF2E
:1094400010BD000001FDFFFF02E008C8121F08C1A7
:10945000002AFAD170477047002001E001C1121FB5
:10946000002AFBD1704700000149086070470000E6
:109470007C210020F0B51FB484B007980699020D36
:10948000014314D04A484B491018484305140F981B
:1094900001280E981CD0281A401C0024464E47492B
:1094A000009401910290002814DA474227E00F98B7
:1094B000012443A3012808D0002104980F9A846056
:1094C0000360C260416009B0F0BD0E98C143F4E78B
:1094D0004042E2E7074612E0F80707D0224633464B
:1094E00001990098FFF790F90191009022463346C8
:1094F00010461946FFF788F904460E467F10002FE4
:10950000EAD10298019B0028009A0799069802DA8E
:10951000FFF77AF901E0FFF7DFF904460E46002273
:10952000284BFFF771FA03D80020C043014607E03B
:109530000022254B20463146FFF7B4F8FFF744FAE6
:10954000102409E0002C0ADB0A220023FEF7C8FFE2
:10955000059B30321A55641E02460A43F2D111228D
:10956000641C059B121B1C190F9B012B03D00123AC
:1095700008430ED10AE0084304D011200E900020C9
:109580000F9084E70E98151A6D1E0BE00E9882421C
:1095900002DD00236D1C03E0824201DA00236D1E10
:1095A000002BEED004980F998260C16030C08AE72A
:1095B00001FCFFFF104D0000000024400000F03FC0
:1095C000300000000000F0430000E03FFFB597B01E
:1095D0000646002518E2252877D100242746FD49B4
:1095E000049400E00443761C32780120203A904035
:1095F0000842F7D130782A280ED00222307801466E
:109600003039092916D804990A23594330394018AA
:109610001443761C0490F1E7189802C8049118903E
:10962000002904DA01204003044348420490022048
:109630000443761C30782E2814D10420044370781B
:10964000761C2A2809D11898761C80C8189009E041
:109650000A214F43303FC719761C30780146303914
:109660000929F5D930786C2810D006DC4C281AD09E
:1096700068280ED06A2817D104E0742813D07A28FD
:1096800012D110E00120400504430CE0012109053E
:1096900001E0032109050C437178814203D10120C7
:1096A00000052418761C761C3078119066280BD0A3
:1096B00013DC58287DD009DC00287BD04528F6D063
:1096C0004628F4D047281AD1A5E118E0632835D000
:1096D000642870D0652812D19DE170286CD008DC18
:1096E0006728F1D069287BD06E280DD06F2806D16D
:1096F000BAE073282ED0752871D0782859D01A9ADC
:10970000199990476D1C7EE16002400F022809D034
:1097100003280DD00428189801680DD00D60001D95
:10972000189070E11898EA1701680D604A60F6E732
:10973000189801680D80F2E70D70F0E718986A46F6
:1097400001781172001D18900020507202A800903C
:10975000012005E0189802C8189000200091C0432D
:1097600061070DD5002101E00199491C0191B94221
:1097700012DA8142F8DB009A515C0029F4D10BE047
:10978000002101E00199491C01918142FADB019A13
:109790000099895C0029F5D1019904981A9B471A10
:1097A00021463846199A00F097FA01994019451850
:1097B0000BE04FE02CE113E04EE0009800990078B8
:1097C000491C00911A9A199990470198401E0190DE
:1097D000401CF2D1214638461A9B199A10E137E015
:1097E0000A200021009001916002410F022907D058
:1097F000189A01CA1892C2179446032908D00AE0A1
:109800001898C01DC108C90005C91891944607E001
:1098100000B2C2179446042902D140B2C1178C4647
:1098200000226146944506DA0A46002140429141F1
:109830008C462D2102E0210504D52B216A461173A7
:10984000012103E0E10701D02021F7E7029155E073
:109850000A200AE0102008E01020009000210420D7
:1098600004430191082703E00820002101910090A2
:109870006002410F022907D0189A01CA18920022EB
:109880009446032908D008E01898C01DC108C900F3
:1098900005C91891944603E080B2042900D1C0B2F2
:1098A00000210291210729D51199702906D0009A2B
:1098B0001021019B4A401A4305D00EE040216A4620
:1098C0001173012108E06146014306D030216A4648
:1098D00011731199517302210291009A0821019B81
:1098E0004A401A430AD16146014301D1610705D5B7
:1098F00030216A46117301217F1E02911199582966
:1099000004D035A10E910DA90D910DE037A1F9E715
:109910006146019B009AFEF7E3FD0E9B8C469B5C23
:109920000D9A521E0D92137061460143F0D10D98AD
:1099300005A9081A20300190600703D50120000412
:10994000844300E001270198874201DD381A00E0D6
:109950000020019900904118029809180498401AB3
:109960000490E00306D421461A9B199A049800F04B
:10997000B3F94519002706E003A81A9AC05D1999A2
:1099800090476D1C7F1C02988742F5DBE0030CD5E5
:1099900021461A9B199A049800F09EF9451904E093
:1099A0001A9A3020199990476D1C0099481E009012
:1099B0000029F5DC08E00D980D990078491C0D91FF
:1099C0001A9A199990476D1C0199481E0190002917
:1099D000F1DC63E1092801003031323334353637A8
:1099E00038396162636465660000000030313233EB
:1099F000343536373839414243444546000000008B
:109A000000F05AF94519761C3078002800D0E2E5BC
:109A100028461BB0F0BD600700D406271898C01D6B
:109A2000C108C90048680A680831C30FDB071891EC
:109A3000190001D09CA108E0210501D59BA104E0FB
:109A4000E10701D09AA100E09AA1430011985B08B8
:109A5000109165280CD006DC452809D046281DD079
:109A6000472841D141E0662818D067283CD13CE026
:109A70000021112F01DB112000E0781C01910090E2
:109A800008A911A8FFF7F6FC139905910021119A76
:109A900015927F1C12980197009150E00120C00799
:109AA00003900120019008A9009711A8FFF7E2FC9C
:109AB000139A149905920022119B00921298159303
:109AC000059A0192002901D0104602E0791C401845
:109AD0000190381A01D5019804E04042401E0090E0
:109AE000781C0190C01B029043E0012F00DA01278F
:109AF0000021112F01DD112000E038460191009076
:109B000008A911A8FFF7B6FC13990591119A002135
:109B1000129815920091019721070CD40599B9422A
:109B200001DB019900E00191012904DD159A491E2C
:109B3000515C302906D0B84201DA011D05DA012155
:109B4000029115E00199491EEDE7002805DC009916
:109B5000411800910199091A03E0019A411C9142B0
:109B600000DD01910099401A401C02900120C007BD
:109B70000390200706D402990198814202DB00205D
:109B8000C043029000206946C87707AF01210398BF
:109B90000337C907884224D0022011902B2012904D
:109BA000039800280CDA404203902D20129007E021
:109BB0000A210398FEF7DAFA30317F1E03903970DC
:109BC0001199481E11900029F2DC03980028EFD16A
:109BD000791E129808703078202108404530BF1E49
:109BE000387006A8C01BC01D03901098007800288C
:109BF00000D00120019941180298C0170918039854
:109C000009180498401A401E0490E00306D4214627
:109C10001A9B199A049800F05FF84519109800787B
:109C2000002803D01A9A199990476D1CE00324D597
:109C300021461A9B199A049800F04EF845191CE029
:109C40000098002807DB00990598884203DD1598E5
:109C5000405C199901E0199930201A9A90470098B0
:109C60006D1C401C00900298401E0290002804D1F8
:109C70001A9A2E20199990476D1C0199481E01903F
:109C80000029DDDC05E038781A9A7F1C1999904785
:109C90006D1C0399481E03900029F4DC21461A9B91
:109CA000199A0498ACE600002D0000002B0000007B
:109CB0002000000000000000F8B5044600251E4604
:109CC0001746880404D405E039462020B0476D1CAF
:109CD000641EF9D52846F8BDFFB50446002581B0BD
:109CE0001E46C80301D5302700E02027880404D58C
:109CF00005E038460399B0476D1C641EF9D5284627
:109D000005B0F0BD0A68531C0B601070704700006E
:109D100010B50949982008700021072004F0E2FDE1
:109D200004461F21082004F0DDFD04400121072026
:109D300004F0D8FD204010BD8D20002010B5012179
:109D4000072004F0CFFD10BDF7B582B00026054610
:109D5000167000781446002805D02846039904F0B0
:109D6000CFFD060008D1A87800281ED02078039FD8
:109D7000001D1F2802D90C2005B0F0BD684679DF10
:109D80000028F9D121780322481C20707A542178C8
:109D90001922481C20707A542078C119684600881E
:109DA00006F067FB217840182070E878022300282D
:109DB00010D02078039A411C217013542078039905
:109DC000471C012227700A542078EA78471C03991F
:109DD00027700A546868002815D000214156207861
:109DE0008C460246C01C03991F28C4D8501C207002
:109DF0008B5422780A23501C20708B5420786246A2
:109E0000431C23700A542889002809D0284600944E
:109E1000062202210830039B06F0A8FB0600ABD106
:109E2000288A002809D028460094072203211030F0
:109E3000039B06F09BFB06009ED1288B002809D0CF
:109E400028460094152214211830039B06F08EFB3F
:109E5000060091D1286A002805D02246039902F015
:109E60008BF8060088D1686A002805D0224603993D
:109E700004F0FAFB060084D12C20405D002806D0B7
:109E800022462846039905F035FC0600C7D1304626
:109E900072E7000070B59AB0002439481694179400
:109EA00018940094807A6946401C087035494878B7
:109EB000002800D001200978002900D001214900A4
:109EC000084331490978032957D0042955D0002186
:109ED0008900084369464870088840BA04F0D2FDFA
:109EE00010A90883294E072004F088FB054671DF7E
:109EF000002803D026A2932100F09AF8681C0021C4
:109F00000522531AC35C7354491CC9B20629F8D3FD
:109F1000284603F0B7FD062510A885831B48189036
:109F2000302101A8FEF773F902216846017184719E
:109F3000C57101258582154824210838069016A888
:109F40000A900DA8FEF763F910A8057019204001CA
:109F50000023119012940DAA1946009401A800F054
:109F600053FA002803D00AA2BF2100F061F8C121F2
:109F70000EA006F067FA1AB070BD0121A8E7000034
:109F80003C24002098230020E02300200C20002007
:109F9000736F757263655C6D61696E5C7265736F1A
:109FA000757263655F696E69742E6300736F757295
:109FB00063655C6D61696E5C7265736F7572636514
:109FC0005F696E69742E63203A202564202D2D3E32
:109FD000204164766572746973696E6720696E6981
:109FE0007420646F6E650D0A0D0A000010B50748F5
:109FF00007494088884207D174DFFFF74BFF0A20EA
:10A0000004F00AFD00F006F810BD0000002000205A
:10A01000FFFF000010B5032000F0E2FA002804D092
:10A02000FF21024AC33100F003F810BD909F0100E8
:10A03000F8B514460E46054603460A46214609A0D1
:10A0400006F000FA0C2001F011F8012168460170B9
:10A0500000780A48846060C072B6684600780028BC
:10A06000FBD1F8BD6572726F72203A202573203AD9
:10A07000202564203A2025640D0A0000402100209C
:10A08000014B1B6818470000A028002038B50C467B
:10A09000A2680C235A43064B09789D58054A126A58
:10A0A00000920246204608302369A84738BD0000C8
:10A0B000782600206820002010B5064914230A786D
:10A0C0005A435118091DFFF7E1FF042005F060FC19
:10A0D00010BD0000AC25002070B5114CA568002D06
:10A0E00006D0002A06D0002804D00023247809E0F6
:10A0F000082070BD072070BD24265E43AE5D002E93
:10A1000004D05B1CA342F7DB042070BD242401268D
:10A110005C432E5564196170A2610360002070BD1C
:10A120004C210020FFB59807002481B01E4615463B
:10A130000F4600280BD1002E09D005F04DF822491A
:10A140000A9888610F70324600208E6008E0072070
:10A1500005B0F0BD24234343D4549B181C75401C08
:10A16000B842F7DB24204743BB19032048700F4651
:10A170001846CB6019461830002218232E465E433D
:10A18000D3005B181C705C709D7058603018521CB6
:10A19000032AF5DB0020C0433861BC70FC70012449
:10A1A0000A482405046003211420FEF7DDFC08485A
:10A1B0000460084C0198A06003211120FEF7D4FC34
:10A1C000606878610020C3E74C21002080E200E055
:10A1D00000E100E000150140FEB504461D481746A9
:10A1E00082680D46002A0CD001788C4201D2052DE0
:10A1F00001D20720FEBD214624235943535C012B85
:10A2000001D00820FEBD8818407801281DD0002606
:10A2100006F070F9C0000F490190C96840186946FE
:10A2200006F092F9002812D0012101700A49446019
:10A2300049680830E2C007490198C9684118009888
:10A24000487005F0DFFE0020FEBD2E46E0E704204A
:10A25000FEBD00004C21002000150140F8B5144D52
:10A260000446A868002809D029788C4201D3072029
:10A27000F8BD24216143405C012801D00820F8BDCD
:10A2800006F038F9C600E8686946301806F05CF94F
:10A2900000280AD0022101704460E8683118009853
:10A2A000487005F0AFFE0020F8BD0420F8BD0000A6
:10A2B0004C210020F3B585B00698FDF7C0FF054698
:10A2C00001F064FF0090002103910099E8000290E2
:10A2D0006E1830460830074604F090F904462A46C6
:10A2E0000699FDF79FFF60190099FDF790FF802008
:10A2F0006055A019082202A9FDF762FF059990C1D7
:10A3000007B0F0BD70B5044601202049C003486085
:10A310001F480025056001260E6005601D4A166075
:10A320000368002BFCD0056088685660C0B24B21E2
:10A3300089014843FF21FDF719FF80B203F008FDB2
:10A340006070152004F086FB002804D1162004F06C
:10A3500081FB012805D0152004F07CFB012802D0E8
:10A3600006E003200AE0162004F074FB012804D064
:10A370006078142804D2022000E00420207070BD10
:10A38000192801D2267070BD257070BD007500407F
:10A39000007100400070004010B5122004F052FB24
:10A3A000112004F067FB03F0DFFF10BD70B50C4611
:10A3B00092B000216A46117007251171002809D05A
:10A3C000C17849070CD502A9FFF7BEFC002808D1C7
:10A3D00002AE00E00026002C0ED0E078002802D06B
:10A3E000284612B070BD01AA0AA92046FFF7ACFCAE
:10A3F0000028F6D10AAA00E0002268460379017815
:10A40000304672DFEDE7000070B50D460499164640
:10A41000040042D0002E40D0424800224271C36066
:10A420000161242231464048FDF7CAFE00F0D0F811
:10A430003D493431084610380160203181603021B7
:10A440005438FDF7E4FE3848217830380170A1789F
:10A450008170E178C17061784170626921694261FF
:10A460000161E268A168C26081600146E369A26996
:10A47000CB618A61616A002919D00146A431024684
:10A48000B03241628A60636A1B880B80616A436AEA
:10A49000898899800021436A06E00E2070BD666AB3
:10A4A000B668765C5654491C9E888E42F7D8A16ADD
:10A4B00000291CD01C4AAC3211460C398A608162DA
:10A4C000A36A9B888B80A16A836A0988198000210E
:10A4D000836A04E0A66AB668765C5654491C9E8876
:10A4E0008E42F7D82C210A5D0F4910390A73216A70
:10A4F000002909D00B4914310162226A52884A802E
:10A50000216A026A098811806168002904D005491E
:10A51000891D416061684160034829463038FFF772
:10A5200045FF70BD90200020B426002010B50288A1
:10A530001A4C102A17D00021112A17D0192A11D12C
:10A54000807900280ED1607901281BD002281FD005
:10A5500003281FD0042805D12171E2680846002A8B
:10A5600000D0904710BD8088208110BD6170808828
:10A5700021898842F9D1012005E021690029F4D020
:10A58000884710BD022000F02BF80028F5D110BD3F
:10A590000320F8E7032020710420F4E79020002036
:10A5A00010B5022801D003280ED1084C20780028CD
:10A5B0000AD000202070607900F012F8002803D043
:10A5C0002169002900D0884710BD0000902000209C
:10A5D00010B507210148FDF71AFE10BDA820002084
:10A5E000F0B5754C87B06071002606A8069604F099
:10A5F00025FB0127082806D000286FD106980028DF
:10A6000002D02770D4E00696FFF7E2FF6B4D687822
:10A61000002802D06079012805D0A87800280AD047
:10A620006079022807D1E168002903D0E77008208B
:10A63000884700E0E6706079012808D16878002832
:10A6400009D05D48193004F09DFA002803D06079E4
:10A65000022802D00CE002206071A878002805D002
:10A660005548193004F08EFA002801D1032060719A
:10A67000287B002804D16079032801D1042060716F
:10A68000287E002804D16079042801D166712671E2
:10A69000E16800290AD06079032801D0042805D197
:10A6A0002878002802D06078002818D0A6701821D9
:10A6B0006846FDF7ACFD6846067001960672039683
:10A6C000607901280FD0022816D03C4E2436374638
:10A6D000543F03281CD004285ED13BE069E0A770FA
:10A6E00007208847E3E73448183001906846077030
:10A6F00046820682277152E02F4818300190684642
:10A70000077029894182A98801820220207146E0D0
:10A71000A88A69464882288A08822848243005F099
:10A72000F7FF002805D02878002802D0607800289C
:10A7300001D003202FE0022069460872042003960E
:10A74000F8701E4800213038FFF730FE002830D165
:10A75000052020E0A88B69460882288C488217488B
:10A76000243005F0D5FF002805D02878002802D035
:10A770006078002801D004200DE0022069460872AC
:10A7800004200396F8700D4800213038FFF70EFEC4
:10A7900000280ED1062020716079002803D0684679
:10A7A00073DF002805D1E168002901D020798847AE
:10A7B000002007B0F0BD000090200020B42600204B
:10A7C00070B5054601461C220F48FDF7F9FC0F4CF9
:10A7D000002626702968002907D00822A018FDF756
:10A7E000EFFC204608307ADF02E0084808307BDFC3
:10A7F000002808D1401E608004486670044A002189
:10A80000001DFFF769FC70BD80270020B0200020EC
:10A8100091040200F8B5224C028800271F4DE689FA
:10A82000102A16D029464968112A21D0122A2DD083
:10A83000502A1CD1C288801DB24218D1028B022A34
:10A8400015D1C27E837E10021843C007C00F0CD101
:10A8500012E08188698001461048082216311030C4
:10A86000FDF7AEFC6F70002E01D101F033FCF8BD96
:10A870000020C04368806F700846FFF7EFFC002897
:10A88000F5D0A1690029F2D08847F8BD811D0348A1
:10A8900008221030FDF794FCE7E70000B02000200C
:10A8A000802700207FB504460121684681714A490E
:10A8B00081804A4A01A90120A0DF00287ED1228898
:10A8C00025463C35002A09D044482B46801C009080
:10A8D0004348616801F088F900287BD12289002A69
:10A8E0000AD03E482B460A3000903D48E168401FA0
:10A8F00001F07AF900286DD1228A002A0AD037485F
:10A900002B461230009036486169001F01F06CF947
:10A9100000285FD1228B002A0AD030482B461A30FB
:10A9200000902F48E169801E01F05EF9002851D1A6
:10A93000228C002A0AD029482B4622300090284831
:10A94000616AC01E01F050F9002843D1228D002A0F
:10A950000AD022482B462A3000902148E16A401E46
:10A9600001F042F9002835D1216B00290ED002A850
:10A9700005F0FAFA19482B463230009018480822A0
:10A9800002A9801F01F030F9002823D1606B002854
:10A990000BD012492B463A310091027901681048D8
:10A9A000401C01F021F9002814D1A16B002910D01E
:10A9B00002A804F00FF90948423000E00AE00090D4
:10A9C00007482B46072202A9273001F00DF900287D
:10A9D00000D1002004B070BD0A180000C82000207B
:10A9E000292A000070B5044601F0C4FD124D21462D
:10A9F00012482A6800F018FA2046FFF70BFF286873
:10AA0000214682690D48904721880D48102904D0BD
:10AA1000112905D019290AD107E0A188418006E053
:10AA20000021C9434180FFF735FAFFF7F3FA2046CA
:10AA3000FFF77CFD70BD000038200020502300206F
:10AA40000020002070B504460D460846FDF7F7FBD0
:10AA50002080656070BD00001CB5002348221A49A3
:10AA6000082004F0C9FF002804D0FF2117A23E31BE
:10AA7000FFF7DEFA0020009001900120694608707F
:10AA8000684660DF002804D0FF2110A24431FFF7A0
:10AA9000CFFA154804F0A6FF002804D0FF210BA22E
:10AAA0004731FFF7C5FA114804F0BEFF002804D073
:10AAB000FF2106A24931FFF7BBFAFF214B310CA061
:10AAC00005F0C0FC1CBD000080210020736F757272
:10AAD00063655C6D61696E5C7265736F75726365E9
:10AAE0005F696E69742E6300E5A9010059FF0100DA
:10AAF000736F757263655C6D61696E5C7265736FAF
:10AB0000757263655F696E69742E63203A202564EF
:10AB1000202D2D3E20426C6520737461636B20698B
:10AB20006E697420646F6E650D0A0D0A00000000E6
:10AB300010B5044600F02EF8002803D00BA2972190
:10AB4000FFF776FA204600F0CDF8002803D007A2E0
:10AB50009A21FFF76DFA204600F06AF8040003D04E
:10AB600002A29D21FFF764FA204610BD736F757233
:10AB700063655C73657276696365735C626C655F5F
:10AB80007765636861745F736572766963652E6368
:10AB900000000000F0B58FB0054620A60024F9277C
:10ABA0001C2102A8FDF733FB6846017A20200143EF
:10ABB0006846017203940594069407940122089450
:10ABC00082711A4981801146103100940170002071
:10ABD0000146684641708178F7203940891C014060
:10ABE000EF20014011436846817014210AA8FDF747
:10ABF0000EFB01A80A9068460B903046FDF71FFB3C
:10AC00000146684601861421448681860E9628886E
:10AC1000AB1C0AAA02A9A2DF0FB0F0BD696E64697D
:10AC2000636174652063686172000000C8FE000003
:10AC300070B58EB0054621A61C216846FDF7E7FADF
:10AC4000684601780220014368460170002401949F
:10AC5000039404940594012208A8069482701A496A
:10AC600068460184601C0107090F6846103107948B
:10AC70000177114610314177817FF9200140F7209B
:10AC8000891C0140EF20014011436846817714215F
:10AC900009A8FDF7BCFA08A8099007A80A900421A2
:10ACA000684681851421C48501860D962B46288827
:10ACB000123309AA6946A2DF0EB070BD72656164E5
:10ACC0002063686172000000C9FE000008B501221F
:10ACD00069468A70024A0A8002460120A0DF08BD48
:10ACE000E7FE000070B590B0054622A61C2102A820
:10ACF000FDF78DFA6946087A08210843694608720B
:10AD000000240394059406940794012208948A7100
:10AD10001B488880601C0007000F103000940870EA
:10AD2000601C0007000F103048708878F921084037
:10AD3000F721801C0840EF210840104369468870C5
:10AD400014210AA8FDF763FA01A80A9068460B903F
:10AD50003046FDF774FA6946088614204C868886CA
:10AD60000E962B4628880A330AAA02A9A2DF10B041
:10AD700070BD0000777269746520636861720000BD
:10AD8000C7FE000070B5002A08D0002B06D0084C82
:10AD9000A588002D04D0E688AE4201D0002070BD09
:10ADA0002260A3800022E28000F004F870BD000061
:10ADB00014200020F0B589B0054600266846184AE0
:10ADC000068053780120002B02D19278002A00D10E
:10ADD0000020144B6F469A88DC88121B92B23A808E
:10ADE000142A00D914223A8047423A4204D100F092
:10ADF000A9F8002009B0F0BD0396049605960696C2
:10AE000069886846818118680221001906906846A1
:10AE100005908173A018D880688B03A9A6DFE9E7A5
:10AE2000882500201420002070B5044608881546A7
:10AE30000E46102810D0112819D0502813D05328AE
:10AE400009D120461146FFF7B5FF002803D012A212
:10AE5000E621FFF7EDF870BDFF21213118A005F0C4
:10AE6000F1FAB08816E0204603F036FE70BDFF21EF
:10AE70002F3122A005F0E6FA686980472F480021AB
:10AE800001608180C180083001608180C1802C48D0
:10AE90000170481E608370BD736F757263655C736B
:10AEA000657276696365735C626C655F776563681C
:10AEB00061745F736572766963652E6300000000DC
:10AEC000736F757263655C73657276696365735CD5
:10AED000626C655F7765636861745F7365727669DC
:10AEE00063652E63203A202564202D2D3E20434F9C
:10AEF0004E4E45435445440D0A000000736F757271
:10AF000063655C73657276696365735C626C655FCB
:10AF10007765636861745F736572766963652E63D4
:10AF2000203A202564202D2D3E20444953434F4E86
:10AF30004E45435445440D0A0000000014200020F3
:10AF40002420002070B5124C0A460646D268A1881B
:10AF50002068904700252560A580E5800D4CA07BEA
:10AF6000012800D1A573E07B012804D1002E01D077
:10AF700004F03AFAE573207C012808D106482574CC
:10AF80008178002903D1012181700448417370BD8B
:10AF9000142000208825002098230020E023002092
:10AFA00010B5104903200860091D08600D490C39CF
:10AFB0000860112003F056FD122003F053FD0E200F
:10AFC00003F038FD07490C20103108600020091DEE
:10AFD000086004F037FBFF217E3103A005F032FA50
:10AFE00010BD000044070050736F757263655C6D9F
:10AFF00061696E5C7265736F757263655F696E69B6
:10B00000742E63203A202564202D2D3E20426F614E
:10B01000726420696E697420646F6E650D0A0D0A92
:10B02000000000001CB5044681786A460C4803F015
:10B0300019FE002812D160781C21484309491C23BD
:10B0400040181A46694603F0C7FE064806494030D4
:10B05000807A80000A582146684690471CBD00004F
:10B06000242100206028002058080200002070479A
:10B0700070B50A2847D12448007B002843D000201F
:10B08000224A01464B00D35A491C1818C9B20A2952
:10B09000F8D30A21FDF76AF81B4C0E3420800020FB
:10B0A00000F036F8FDF7EAF9A070052000F030F85E
:10B0B000FDF7E4F9E0700020144B0146024614331A
:10B0C00055005D5B002D02D0491CC9B22818521CE6
:10B0D000D2B20A2AF4D3002902D0FDF747F800E0E3
:10B0E0000020A0800020094A014646325356491CE0
:10B0F0001818C9B200B20A29F8D30A21FDF74CF892
:10B10000A0718010E07170BDE02300202225002096
:10B11000F8B5002704462546461D009709E0154866
:10B12000405DFDF796F93946FDF79DF86D1C074621
:10B13000EDB2B542F3D310493846FDF72AF905467A
:10B140000FE00C48005DFDF784F92946FDF7DCF8B7
:10B150000146FDF7E1F80099FDF785F8641CE4B2BB
:10B160000090B442EDD30021C9430098FDF74FF998
:10B17000F8BD00004A2500200000A040F8B50446B4
:10B1800000900D46808803F07DFC714B0127C21AA8
:10B19000704E0834083D98421AD009DC002817D0B8
:10B1A0006D49401816D0012833D0022806D145E059
:10B1B000022A74D0032A70D0042A6FD000988088A5
:10B1C00003F060FC0246FF210D3164A005F03AF95E
:10B1D0000020F8BD912170A005F034F929462046E1
:10B1E00002F08FF804000DD097217B4805F02AF972
:10B1F0002068002809D00068002805D0204602F009
:10B20000B5F832E07548F8BDF770204602F0AEF8A8
:10B21000DEE7A721724805F015F92946204602F01D
:10B2200010FA040007D0AD216E4805F00BF9204656
:10B2300002F03FFACCE76948801CF8BDB9216AA04A
:10B2400005F000F92946204602F0D6F804000FD098
:10B25000BE21754805F0F6F82068002818D000686F
:10B26000002808D0204602F097F920680068F8BD51
:10B270005A48401CF8BD207B002807D004226B49A7
:10B28000002000F091FF2169884200D137713770AA
:10B29000204602F081F99BE701E01CE033E0D52174
:10B2A000634805F0CFF82946204602F07EF90400F5
:10B2B0000ED0DB215F4805F0C5F8A168606800F09A
:10B2C000ABFA204602F0B4F97089401C70817FE728
:10B2D0004248001DF8BDE42157A005F0B3F8294607
:10B2E000204602F02AFA002808D000217170027965
:10B2F000012A06D0317002F05DFA69E73748401D37
:10B30000F8BD3770F7E7F7215B4805F09BF8294651
:10B31000204602F0D7F9040005D02079012805D095
:10B32000022809D00FE02D48801DF8BDFD2153A053
:10B3300005F088F8777006E0FF2101315EA005F086
:10B3400081F800207070204602F0EEF940E700001E
:10B350002F75000088250020DFB1FFFF736F757225
:10B3600063655C73657276696365735C70726F6444
:10B37000756374735C63632E63203A202564202D0B
:10B380002D3E204552524F5220434D444944203ACD
:10B390002025640D0A000000736F757263655C738D
:10B3A000657276696365735C70726F6475637473DC
:10B3B0005C63632E63203A202564202D2D3E2052AD
:10B3C0006563656976656420276175746852657385
:10B3D00070270D0A0000000004130200909900007D
:10B3E000EC110200B8120200736F757263655C7332
:10B3F000657276696365735C70726F64756374738C
:10B400005C63632E63203A202564202D2D3E20525C
:10B41000656365697665642027696E697452657332
:10B4200070270D0A000000004813020031200020A0
:10B43000A81102008C130200736F757263655C7350
:10B44000657276696365735C70726F64756374733B
:10B450005C63632E63203A202564202D2D3E20520C
:10B4600065636569766564202773776974636856D8
:10B47000696577270D0A000064110200736F757209
:10B4800063655C73657276696365735C70726F6423
:10B49000756374735C63632E63203A202564202DEA
:10B4A0002D3E20456E746572204261636B67726F3A
:10B4B00075640D0A00000000736F757263655C733C
:10B4C000657276696365735C70726F6475637473BB
:10B4D0005C63632E63203A202564202D2D3E204599
:10B4E0006E74657220466F7267726F756E640D0AB6
:10B4F0000000000010B500280ED00246FF213D31AB
:10B5000006A004F09FFFBFF34F8F12491048C86098
:10B51000BFF34F8F00BFFDE710BD0000736F757262
:10B5200063655C73657276696365735C70726F6482
:10B53000756374735C63632E63203A202564202D49
:10B540002D3E206572726F72203A2025640D0A002C
:10B550000400FA0500ED00E010B5002801D002F06B
:10B5600091FA10BDF0B50D46074699B000205E492E
:10B57000029003C95D4E01910090B0891446401CB1
:10B58000B0813A68012A09D0022A2AD0032A64D05D
:10B59000832157A004F056FF19B0F0BD3D2163A0F0
:10B5A00004F050FF50495422083103A8FCF708FE6C
:10B5B00002A8039003A801F0CFFB694F3978401827
:10B5C000206003F01BF828600028E5D03978226855
:10B5D000521A411803A801F0E3FC002822DB61485D
:10B5E00027E0552160A004F02DFF3F491C225C316B
:10B5F00003A8FCF7E5FD02A8039003A801F0B0FC46
:10B60000574F39784018206002F0F8FF2860002872
:10B610000BD039782268521A411803A801F052FD64
:10B62000002804DA00202860B6E75A2140E04D489F
:10B63000801C02F00DFC69468880208880B202F0F0
:10B6400007FC69464880B08902F002FC6946C88060
:10B650003A782868FCF7B4FD9EE76C214FA004F00F
:10B66000F1FE002004900590069002A803907868EF
:10B670000490B868059003A801F0E7FD384F3978C9
:10B680004018206002F0BAFF286000280FD03978F7
:10B690002268521A411803A801F054FD002809DA63
:10B6A0000020286077214C4804F0CCFE74E771211B
:10B6B0004AA0F9E72B48401C02F0CAFB6946888083
:10B6C000208880B202F0C4FB69464880B08902F04D
:10B6D000BFFB6946C8803A782868FCF771FD30895D
:10B6E000401C308158E700009007020088250020A8
:10B6F000736F757263655C73657276696365735C9D
:10B7000070726F64756374735C63632E63203A2098
:10B710002564202D2D3E2064656661756C7420655E
:10B7200072726F723A2025640D0A0000736F757291
:10B7300063655C73657276696365735C70726F6470
:10B74000756374735C63632E63203A202564202D37
:10B750002D3E20434D445F415554480D0A000000E2
:10B760003020002011270000736F757263655C73D1
:10B77000657276696365735C70726F647563747308
:10B780005C63632E63203A202564202D2D3E2043E8
:10B790004D445F494E49540D0A000000736F7572A5
:10B7A00063655C73657276696365735C70726F6400
:10B7B000756374735C63632E63203A202564202DC7
:10B7C0002D3E20434D445F53454E445F434F4E460C
:10B7D00049470D0A0000000018110200736F7572CE
:10B7E00063655C73657276696365735C70726F64C0
:10B7F000756374735C63632E63203A202564202D87
:10B800002D3E204E6F7420656E6F756768206D65E4
:10B810006D6F72790D0A0000F8B58A1E0378811CDD
:10B82000012B19D14078434C0746103F254601268D
:10B8300040353B00FDF7B8FA090608112D3B495782
:10B8400062757C00E67068E06670201DFCF7B8FC4D
:10B8500003F0E4FCFEF7CAFBF8BD0D46088803F0D0
:10B8600011F9E084688803F00DF92085A88803F0B9
:10B8700009F96085E88803F005F9A085288903F0B7
:10B8800001F9E085688903F0FDF8208603F0D6FF12
:10B890004BE00D46088803F0F5F86086688803F0F1
:10B8A000F1F8A086A88803F0EDF8E0863DE00D46AB
:10B8B000888803F0E7F8A087288803F0E3F820875A
:10B8C000688803F0DFF860872FE00E46088803F0F1
:10B8D000D9F8E087708803F0D5F82880B08803F0A5
:10B8E000D1F8688021E0088803F0CCF81249C880BC
:10B8F00088780028B0D188808E70F8BD087800283C
:10B9000005D00128F9D1267003F072FEF8BD0020A1
:10B91000207048210748FCF77AFC03F07FFCFDF714
:10B9200045F9087828714878687103F077FCF8BD0C
:10B93000A871F8BD98230020E023002000B58DB049
:10B9400000F0B8F808A00FC803936B4607C303A81C
:10B95000212209490330FCF733FC0849684602F00C
:10B96000B5FE0DB000BD000067685F64313664321B
:10B9700036303536373133009C2300209A2500209D
:10B98000F8B5064604F06EFE1C4C0027A0781C4D4E
:10B99000002805D0A07B002802D16078002801D0C3
:10B9A000AF71F8BDA97900290CD00120A0733046F1
:10B9B00000F092F8002804D0FF2112A2D631FEF741
:10B9C00037FBAF71304603F06FFD207C0028E8D1D3
:10B9D000144930468A89002A02D1897A0029E0D0A8
:10B9E0000121A173E17303F061FC0028D9D0FF218C
:10B9F0000DA2C431FEF71CFBF8BD00008825002015
:10BA0000D8230020736F757263655C736572766905
:10BA10006365735C70726F64756374735C63632ECB
:10BA2000630000003C240020736F757263655C73D3
:10BA3000657276696365735C70726F647563747345
:10BA40005C63632E6300000070B50A88102A1ED064
:10BA5000112A1DD0502A1AD1CA88C088891D824255
:10BA600015D1088B022812D1C87E897E00020843B6
:10BA70008007C00F00240B4D00280CD00A48FF217E
:10BA8000C4704D31094804F0DDFC0120A87070BD80
:10BA900000F010F870BDFF215031054804F0D2FCD1
:10BAA000AC7070BD88250020E02300203012020019
:10BAB0007412020007480021817001704170C1704A
:10BAC000017141718171018141818173C1730421CF
:10BAD0000174704788250020FEB50C460546404A93
:10BAE0000B00FDF761F9097A060930435268717459
:10BAF0007A002123121D6DE01646D08C02F0A8F9C1
:10BB0000014668460180308D02F0A2F90146684680
:10BB10004180708D02F09CF9014668468180B08DAD
:10BB200002F096F901466846C180F08D02F090F966
:10BB3000014668460181308E02F08AF90146684666
:10BB400041810C230EE01646508E02F081F9014629
:10BB500068460180B08E02F07BF90146684641805C
:10BB6000F08E21E002462146284633E01646108F2B
:10BB700002F06EF9014668460180708F02F068F9A4
:10BB8000014668464180B08F0EE0D08F02F060F928
:10BB90000146134E684601804036308802F058F95D
:10BBA000014668464180708802F052F901466846B5
:10BBB00081800623D6E70B48C08802F049F9694620
:10BBC000088002236A46CEE70223064A02E0044ABE
:10BBD0000223443203F02CFBFEBD0020FEBD00001A
:10BBE00098230020E0230020FFB58FB01E461546A5
:10BBF0000F0004D123A26D210020FEF719FA002DB9
:10BC000004D120A26E210020FEF712FA1C21684602
:10BC1000FCF7FDFA6846017802200143684601708E
:10BC200000240194039404940594012108A8069427
:10BC3000817068460F990184079431780177717893
:10BC40004177807FF9210840F721801C0840EF21CF
:10BC500008404108490068468177142109A8FCF78B
:10BC6000D6FA08A8099007A80A9068468585C48571
:10BC700005860E480D9709AA69460088189BA2DF21
:10BC800013B0F0BD736F757263655C6C696272614D
:10BC9000726965735C626C655F7365727669636512
:10BCA000735C626C655F6469732E6300C82000205A
:10BCB00008B50548009068460078122801D0002099
:10BCC00008BD012008BD000078563412F8B53E4882
:10BCD0001422017851430C18E0680C2148433A497A
:10BCE0002769CC314018058941890091241D466897
:10BCF00003F046F801463846FCF738FA002932D0FE
:10BD000000200099A2884D436188AE198918CD1989
:10BD100000222E4900280A6109D003F031F8618819
:10BD2000884222D0B54202D1A08800281DD0A06848
:10BD300002281AD003F024F8A188CA190146104637
:10BD4000FCF714FA214C8808E06003F019F801466A
:10BD50002846FCF70BFA002911D00020B5422FD05D
:10BD600000280ED02CE00120CBE703F009F80146B3
:10BD70003846FCF7FBF915494861032021E0012012
:10BD8000ECE7ADB2B7B202F0FBFF01463846FCF774
:10BD9000EDF9064602F0F4FF01462846FCF7E6F905
:10BDA000864201D1781B09E002F0EAFF064602F064
:10BDB000E7FF01462846FCF7D9F9701A8008206190
:10BDC000022003F0E5FDF8BDAC250020682000202E
:10BDD00010B5074814220178514308180079042847
:10BDE00002D000F059F810BD012003F0D1FD10BDC4
:10BDF000AC25002010B50B481422017851430818D7
:10BE0000094AC18811620079012806D0032801D0AF
:10BE1000042801D1FFF75AFF10BD012003F0B8FD3F
:10BE200010BD0000AC2500206820002014225043E3
:10BE3000054A002180180171C18001220161C260A0
:10BE40004161018170470000AC250020F8B5104C1D
:10BE5000069E65780A2D19D027787D190A2D00D302
:10BE60000A3D14277D432D1928716A6103C9296190
:10BE7000E860EB802E816078401C60700548007897
:10BE8000002801D1FFF7B6FF0020F8BD0420F8BD5F
:10BE9000AC2500206820002010B50D4C142120781E
:10BEA000484301190020091DFEF7F0F82078FFF73C
:10BEB000BDFF6078401E60702078401CC0B22070CA
:10BEC0000A2801D100202070002003F061FD10BD80
:10BED000AC250020F8B5224801694A1C3DD0242237
:10BEE0005143826889184E681E494C684769007939
:10BEF000E11B0D022D0AED1C002814D101201A4A65
:10BF000000045060184A403A5060184940000860E8
:10BF1000174908601749012008602F20FCF7DAF85C
:10BF20000F4901200871B54200D23546E8190002D8
:10BF30000C49000A403108600A494968001B091B86
:10BF40000902090A0002000AC91C814204D9012021
:10BF50000649400480390860F8BD03F03DF9F8BD9A
:10BF60004C210020001501404013014080E200E018
:10BF700000E100E000100140F8B50D4611780646DA
:10BF8000881D14461F2801D90C20F8BD33880720CE
:10BF9000062BFAD31927FF01BB4202D9164A934256
:10BFA000F3D17288062AF0D3BA4202D9124FBA42AC
:10BFB000EBD1114FBB4203D0BA4201D09342E4D837
:10BFC000481C052220706A5420781222411C2170DE
:10BFD0002A5420784119308804F04BFA217840180F
:10BFE000C0B220704119708804F043FA21784018DB
:10BFF00020700020F8BD0000FFFF000010B502A275
:10C000005621FEF715F810BD736F757263655C6D90
:10C0100061696E5C7265736F757263655F696E6985
:10C02000742E630000B587B01C216846FCF7EFF85A
:10C030000521C90301910F210904002002910090FC
:10C04000032269460A730874094805900948069056
:10C050006846FEF7B5FB002803D007A27321FDF761
:10C06000E7FF74210BA004F0EDF907B000BD00005C
:10C0700099EA0100FDBF0100736F757263655C6D25
:10C0800061696E5C7265736F757263655F696E6915
:10C09000742E6300736F757263655C6D61696E5CAD
:10C0A0007265736F757263655F696E69742E632064
:10C0B0003A202564202D2D3E20436F6F6E20706145
:10C0C00072616D7320696E697420646F6E650D0A0C
:10C0D0000D0A0000F8B5164801F01EFF144D0026A9
:10C0E000103D144C002807D0616900291BD00120A5
:10C0F0006A461070684615E02878002805D0616906
:10C10000002910D0684606700CE0687800280CD032
:10C11000A16800226868FEF75FF8002803D0A169D3
:10C12000002900D088472E70F8BD6168F1E7000053
:10C13000C02000208027002070B5094B04469E7A5D
:10C14000082000250E4207D00648844202D01889F4
:10C15000A04202D10020156070BD052070BD000016
:10C1600094280020FFFF00000C214843064910B529
:10C17000012240188272911E0181FF21C1720721A4
:10C18000FCF745F810BD000094280020C000C00551
:10C19000C00D06D00F218901081AC005C00DC008C6
:10C1A0007047FF20C130FAE7F8B515460E0001D000
:10C1B000C44343E00020F8BD30786040C0B200F0D6
:10C1C0004FF80746210A70784F407840C0B200F01F
:10C1D00047F80446390AB0784C406040C0B200F0DD
:10C1E0003FF80746210AF0784F407840C0B200F08F
:10C1F00037F80446390A30794C406040C0B200F04C
:10C200002FF80746210A70794F407840C0B200F0FD
:10C2100027F80446390AB0794C406040C0B200F0BB
:10C220001FF80746210AF0794F407840C0B208361F
:10C2300000F016F8390A48400446083D082DBBDADC
:10C24000002D0AD03078761C6040C0B200F008F8AB
:10C25000210A484004466D1EF2E7E043F8BD0000A5
:10C26000054A0021C30702D04008504000E04008C2
:10C27000491C0829F6DB70472083B8ED10B5134C34
:10C28000207900071FD46069401C6061E0680028C5
:10C2900001D0042004E001F071FE002803D0022048
:10C2A00003F050FE10BD2069002809D06068C10766
:10C2B00001D00320F4E70121084360600020EFE78C
:10C2C000FFF786FD10BD03F031FE10BD6820002091
:10C2D00010B5084841680A0708D48A0702D5012228
:10C2E00011434160022003F02DFE10BD03F01EFE3D
:10C2F00010BD000068200020FEB50E46044681787F
:10C300006A46234802F0AEFC002827D160780C2151
:10C31000204F4843C019807A400620D4022E1ED0F8
:10C32000012E1ED01C4DA0781C2148431949002322
:10C33000F83941181C226846A847002813D0022E5D
:10C340000CD020780C21484312490C314018807AD7
:10C35000124980000A58214668469047FEBD104D9C
:10C36000E1E7104DDFE7022EF8D060780C2148435A
:10C37000C019817ABF221140817260781C21484324
:10C380000449343941181C231A466846A847D8E79F
:10C39000242100209428002091FC0100480802007C
:10C3A00011F0010035EF01000B480121C17201734A
:10C3B000417281720021C1808170C17081800170E1
:10C3C00001725C3081728422027242720246403AEB
:10C3D0001164818170470000E023002070B505469C
:10C3E000114A124800241C2363431B189B7EFF2B19
:10C3F00004D0641C072CF6D3104670BD0A78022ABC
:10C4000009D01C2262431018FD22827607221030C8
:10C41000FBF7D6FE04E01C2161430818FE2181765B
:10C420002C700022E8E70000438000009C270020D9
:10C43000F7B505250F4F06460024002E0AD01C2014
:10C440006043C019072231461030FBF7FFFE002879
:10C4500007D00AE01C206043C019018B029881427A
:10C4600003D101980025046002E0641C072CE4D38A
:10C470002846FEBD9C2700207CB5054681B26A4651
:10C48000074802F0EFFB040008D15421684602F08F
:10C4900013FC040002D1284602F080FB20467CBD3C
:10C4A0002421002010B5100003D003A2F221FDF7D3
:10C4B000BFFD002010BD0000736F757263655C6D79
:10C4C00061696E5C7265736F757263655F696E69D1
:10C4D000742E63001FB56946087302F057FC0028EC
:10C4E00003D01AA2FF21FDF7A3FD03A800F05CFA18
:10C4F000002804D0FF2115A20331FDF799FD01A802
:10C5000005210130FBF783FE69464879012210437B
:10C51000E1210840DF210C300840694648710720BE
:10C5200088711020C871104800900A710F4800F0FF
:10C530006FFB002804D0FF2104A21031FDF778FD25
:10C54000FF2112310A4803F07DFF1FBD736F757222
:10C5500063655C6D61696E5C7265736F757263654E
:10C560005F696E69742E6300A5C40100002000207D
:10C57000DC090200F0B5054693B000200290FF24CC
:10C58000ED480E94007800284BD0EC4F3868002816
:10C5900047D001A800F0FAF9002803D0E8A2F74933
:10C5A000FDF746FD281D05902A2069460883FF20D7
:10C5B000002688710E710396E04C28880C3C1028E8
:10C5C0000ED0A88803AA0221FFF7B6FD002807D1E4
:10C5D00003980C2141430919CA7A69468A71487146
:10C5E0002888132217287CD00FDC10281BD0112894
:10C5F00053D0132876D0142813D103980C21484324
:10C600000019C07AFF2871D08DE0DD4918286BD061
:10C610001C286AD0522804D1B87A8000095801A891
:10C62000884713B0F0BDD74F03AA01213846FFF762
:10C6300083FD0028F5D103990C20484302220019FC
:10C64000827211236A4613745171A98801810722ED
:10C65000A91DFBF7B5FD287DC10707D04108B648E5
:10C660000830405CFF2808D00E9006E03A460EA93C
:10C67000A81DFFF7DDFE00280ED103990C225143BF
:10C6800009190E98C8728A7A08231A438A72694671
:10C69000887101A8FEF7C6FC39E103980C214843D4
:10C6A0000119887AFD2210408872010706D5C00959
:10C6B0000DD0002101A8FFF71FFE08E06846807931
:10C6C000FF2804D002F06AFAFF20694688710398B7
:10C6D0000C225043102100198172122069460874FF
:10C6E00015E17FE030E001E0D5E00EE1EA890EA936
:10C6F0000020FFF79DFE00280ED103980C22504326
:10C7000000190E99C172837A082213438372684616
:10C71000817101A8FEF786FC03980C21484300199B
:10C72000C07AFF2806D003981C214843834940392A
:10C730004018029003981C21484393494218A88846
:10C740000023029982DF6CE768460274039B0C2089
:10C7500058430119887A042210438872C87AFF2846
:10C7600030D01620694608741820434373480E21C0
:10C77000243818180830FBF74AFD03980C21484369
:10C780000019817A40221143817203990C22002002
:10C790004A430A901219D27A1C235A437A4B0C90BE
:10C7A000D2180B921C2251431A46C43289180791A1
:10C7B000089009903A1DA88807AB00217FDF002868
:10C7C000C1D1A4E00EA8FFF709FE002801D006465B
:10C7D000DBE769460E98887103990C2251430919C9
:10C7E000C872D2E7787A400840007872039A0C2029
:10C7F0009446424311198B7AFB2003408B7214201C
:10C800006F463874A879002804D0C87AFFF734FE40
:10C81000AE797CE0E879400779D5B879FF2876D001
:10C8200008273B438B72EB7A9B0708D51C250346F0
:10C830006B43554D5B199D7E6D086D009D76CB7ADF
:10C84000FF2B64D0A25C022A10D01C2250434E4D14
:10C85000072240191030FBF7B3FC684680791C2191
:10C8600048434019817EFD2211400EE061461C22A2
:10C870005143324A403A89184A8A1C214843424966
:10C8800040180283817E490849008176012101A870
:10C89000FFF732FD3BE0A8790209012A23D1000706
:10C8A000000F01281FD103980C2242431219927ADB
:10C8B000120718D5182148432049243940180E2161
:10C8C0000830FBF7A4FC16206946087403980C2175
:10C8D00048430119887A602210438872787A0221CD
:10C8E000084378720FE003980C2250430019827AB3
:10C8F00080231A43827215206A461074B87A800029
:10C90000095801A88847002601E0684602743246AB
:10C9100004A901A8FDF7B4FB6846007C122800D0EA
:10C920007FE603980C2141430919897A0129F7D040
:10C93000FFF71AFC75E6000014210020A028002053
:10C94000736F757263655C6C69627261726965733D
:10C950005C6465766963655F6D616E616765725C75
:10C960006465766963655F6D616E616765725F704E
:10C9700065726970686572616C2E6300E809000079
:10C9800068080200FFFF00009C270020002806D056
:10C99000FF21017041708170C17000207047014813
:10C9A000704700000E800000F0B585B0040036D05E
:10C9B000294800250560457285722846FFF7D4FB9B
:10C9C000254818212438FBF722FC0026FF27304693
:10C9D00002F0E4F821488755761C072EF7D354213E
:10C9E000684681800721C1801D481C49009008319C
:10C9F000684602F045FA00280FD1184E0120083E83
:10CA00003070207800280CD069468888C98848434F
:10CA100081B23046103002F04FF905B0F0BD114838
:10CA2000FBE7114F00240D48A1B202AA083002F022
:10CA300019F9002809D11C206043C01900231C22C9
:10CA400002A902F0C9F9002801D03570E5E7641C9D
:10CA5000072CE8D3E1E70000A02800201C210020DB
:10CA60006DCA01000E8000009C270020FFB55548CC
:10CA70008FB00068189F1E46002851D0542F4FD801
:10CA80006846FFF783FF002803D04FA25D49FDF7FA
:10CA9000CFFA00246846047004712546059706966F
:10CAA000A9B20DAA584802F0DDF8002806D10822E4
:10CAB0000DA90F98FBF7CAFB002819D06D1C072D94
:10CAC000EED3684680780790FF2829D0109820255B
:10CAD000032810D04D481C21301AFBF747FB0127D3
:10CAE00007282DD204A80290119800281AD021E01E
:10CAF00068468570E5E7542F03D0402069460871E9
:10CB000001E06846057169460879032108436946D2
:10CB1000087104A8029001A96846119AFDF7B0FABD
:10CB200013B0F0BD07993846884037491039496835
:10CB30000842F5D0079803F0A1FC6846057138E07B
:10CB400020481C214038301AFBF710FB00280BD07E
:10CB50001C4D1821243D701BFBF708FB00281AD040
:10CB6000402069460871DBE704A802906846057119
:10CB7000447014480A940C300B904C380790684667
:10CB800080781C21484321494018089007A8069046
:10CB9000182005900DE03021684601714470C7707F
:10CBA00008480C38807A800703D428461821FBF700
:10CBB0002EFB109869460228087901D00221A5E7CA
:10CBC0003843A5E7A0280020736F757263655C6C1D
:10CBD00069627261726965735C6465766963655FD9
:10CBE0006D616E616765725C6465766963655F6DD2
:10CBF000616E616765725F706572697068657261A8
:10CC00006C2E630099050000242100209C27002041
:10CC100070B5064618480D46007800280ED0174912
:10CC2000002E0ED0002D0CD02868002809D0144CFE
:10CC30002168002907D011480A3870BD0F48801FAD
:10CC400070BD084670BD20600522691D201DFBF7E0
:10CC5000B7FA2879A072207A0221400840000843E0
:10CC6000FB2210402072E079012318430843104052
:10CC7000E0710020307070BD142100200E80000093
:10CC8000A028002010B50D4CE08C002814D00E20F8
:10CC900001F0F0FE208D01F0BFFE0E2001F0D2FE6B
:10CCA000608D01F0B9FE0E2001F0E4FE208D01F050
:10CCB000B3FE0E2001F0C6FE10BD00009823002038
:10CCC00010B50E4900238A78CC78A24212D0521CAB
:10CCD000D2B28A70022A00D18B708A78074B9200F8
:10CCE0001C339A580260486910180002000A486113
:10CCF000012010BD0360002010BD00004C21002069
:10CD000070B50446124802190A3801190A38001988
:10CD100002F0C6F90F48C07A002818D002F0D3F903
:10CD20000B4D6600463DA85302F0BEF9294614316A
:10CD300088530848AA5B0838038814319A4201D9FD
:10CD4000022003E04088824201D90120085570BDCD
:10CD500068250020E023002070B5044600210A2049
:10CD600000F017F905462079002804D01220E16868
:10CD700000F00FF9451900221820216900F023FD69
:10CD8000451900222020616900F01DFD4519217E12
:10CD90000022282000F017FD4519607E002804D0ED
:10CDA0003220216A00F0F5F8451926462036307900
:10CDB000002804D03A20E16A00F0EBF84519307CF5
:10CDC000002804D05220A16B00F0E3F84519307F11
:10CDD000002804D05A20616C00F0DBF84519482087
:10CDE000005D002804D06220216D00F0D2F84519C2
:10CDF000284670BDF8B516460A46044681680068A4
:10CE000000F023F8050001D50020F8BDA0686A46AF
:10CE1000411B2068401900F079F8009931602168C1
:10CE200040190818F8BD10B500F05AF810BD10B53B
:10CE300000F056F810BD10B5FFF7DCFF10BDC0685C
:10CE4000704710B5FFF7D6FF10BDF7B5002482B0CC
:10CE50000E460546671E3FE0285D04E0295D00029E
:10CE60004906490E0843641C29192039C97F09065F
:10CE700001D5B442F2DB0499884202D1204605B0C4
:10CE8000F0BD80B24207520F010A01D04005420FA7
:10CE90002B19311B0020002A06D0012A0CD0022AAF
:10CEA0000CD0052A14D115E01A5C401C1206002A89
:10CEB0000CDA8842F8DB09E008200CE00020009042
:10CEC00018466A4600F022F800994018002802DA55
:10CED000641C01E004202418B442BDDB3846CEE7D0
:10CEE00038B50A46044681680068FFF7AEFF00289F
:10CEF00001DA002038BD00210091A1682268091ADA
:10CF000010186A4600F002F8009838BD70B5044663
:10CF1000007843065B0E01200EE0884202DB002011
:10CF2000C04370BD05280CDA255CC6006D066D0E89
:10CF3000361AB5402B43401C2518203DED7F2D06A9
:10CF4000EBD4136070BD10B583680A4600681946BB
:10CF5000FFF77BFF002801DA002010BD012010BD83
:10CF600070B5054600210A2000F013F80446287920
:10CF7000002804D01220E96800F00BF80419287C7E
:10CF8000002804D01A20A96900F003F804192046EB
:10CF900070BD00B50B46002200F015FCC01800BDA6
:10CFA000F0B585B00446684600F087F800252846AD
:10CFB00001F024FB07462A463946206800F074F841
:10CFC000060005D5384600F05DFD304605B0F0BDE1
:10CFD0002B463A460A21684600F07BF9054638465A
:10CFE00000F050FD002D01DA2846EFE720790028F7
:10CFF00007D012216846E368A26800F03DF90028D6
:10D00000E4DB18216846226900F05FF90028DDDBC7
:10D0100020216846626900F058F90028D6DB227E9C
:10D020002821684600F04DF90028CFDB607E0028FB
:10D0300007D032216846236AE26900F01DF9002812
:10D04000C4DB254620352879002807D03A216846D8
:10D05000E36AA26A00F010F90028B7DB287C0028F8
:10D0600007D052216846A36B626B00F036F90028A6
:10D07000ACDB287F002807D05A216846636C226CFD
:10D0800000F02BF90028A1DB4820005D002807D024
:10D0900062216846236DE26C00F01FF9002895DBE1
:10D0A0006846FFF7CCFE91E71FB5684600F005F82B
:10D0B0006846FFF7C4FE04B010BD826041600021E5
:10D0C000C1607047F0B585B004466846FFF7F5FFCC
:10D0D0000025284601F092FA07462A46394620687C
:10D0E000FFF7E2FF060005D5384600F0CBFC3046DE
:10D0F00005B0F0BD2B463A460A21684600F0E9F833
:10D100000546384600F0BEFC002D01DA2846EFE760
:10D110002079002807D012216846E368A26800F051
:10D12000ABF80028E4DB207C002807D01A216846F1
:10D13000A369626900F0A0F80028D9DB6846FFF710
:10D140007EFED5E7F0B585B004466846FFF7B5FF2B
:10D150000025284601F052FA07462A46394620683B
:10D16000FFF7A2FF060005D5384600F08BFC3046DD
:10D1700005B0F0BD2B463A460A21684600F0A9F8F2
:10D180000546384600F07EFC002D01DA2846EFE720
:10D1900012216846A368626800F06EF80028E7DB99
:10D1A000207B002806D0E2891821684600F089F823
:10D1B0000028DDDB6846FFF742FED9E710B50A0A12
:10D1C0000AD002228468C368E41A94420FDB4468E0
:10D1D000E318022A02D004E00122F3E70C0A1C70D3
:10D1E0005B1C1970C1688918C160104610BD002011
:10D1F000C04310BD7CB50546002000900446019058
:10D20000684680234A06520E0255012C04D40219A6
:10D21000203AD67F1E43D677C909641C002901D065
:10D22000052CEFDBA968E868091AA1420ADB6968E6
:10D23000224608186946FAF7C3FFE8680019E86053
:10D2400020467CBD0020C0437CBD70B50446002153
:10D250000A20FFF79EFE05461220A168FFF799FEFF
:10D260004519207B002805D0E1890022182000F014
:10D27000AAFA4519284670BDF8B51C46174605465A
:10D28000FFF79CFF002818DB064621462846FFF7DB
:10D29000B1FF002811DB3618AA68E8683946121A6F
:10D2A000A2420BDB6A6810182246FAF789FFE86889
:10D2B0000019E860200000D43019F8BD0020C043F8
:10D2C000F8BD10B500F00DF810BD10B500F009F86C
:10D2D00010BD10B5FFF7D0FF10BD10B5FFF7CCFFA4
:10D2E00010BD70B515460646FFF768FF002807DB3E
:10D2F000044629463046FFF77DFF002800DB201852
:10D3000070BD10B50A4686B00146684600F070F858
:10D310000A216846FFF717FE002820D01221684630
:10D32000FFF711FE00281AD00C2001F067F904461F
:10D33000002020606060A06004AA0A216846FFF710
:10D340007AFD049900F028F82060000009D02246F8
:10D35000083212216846FFF74DFD6060204606B096
:10D3600010BD204600F08EFB0020F8E710B5044603
:10D37000006800F087FB204600F084FB10BD1FB55D
:10D380000A460146684600F033F8042001F036F9F9
:10D390000021016004B010BD1FB50A460146684671
:10D3A00000F026F808216846FFF7CDFD00281DD0C3
:10D3B000102001F023F90446002020606060A06086
:10D3C000E06008216846FFF732FD206012216846C0
:10D3D000FFF7B9FD002808D022460C32122168461A
:10D3E000FFF72FFDA06001202071204604B010BD82
:10D3F000826001607047000070B50A4686B0014641
:10D400006846FFF7F5FF0A216846FFF79CFD0028F4
:10D410007ED010216846FFF796FD002878D01821AD
:10D420006846FFF790FD002872D05C2001F0E6F816
:10D4300004465C21FAF7EBFE04AA0A216846FFF7CE
:10D44000FAFC0499FFF7A8FF206000287ED0102185
:10D450006846FFF745FD606018216846FFF740FD0C
:10D46000A06020216846FFF76EFD0125002805D049
:10D4700020216846FFF734FD206125732821684686
:10D48000FFF761FD002805D028216846FFF7CBFC97
:10D490006075257530216846FFF755FD002805D0D9
:10D4A00030216846FFF71CFDA061A5755A2168462A
:10D4B000FFF749FD002807D0224624325A2168464A
:10D4C000FFF7BFFC2062257760216846FFF73BFD30
:10D4D000002808D060216846FFF7A5FC01462046D9
:10D4E0002030417205726A216846FFF72CFD002842
:10D4F00008D0224630326A216846FFF7A2FCE0627B
:10D500002A20055572216846FFF71DFD002800E01E
:10D5100037E008D022463C3272216846FFF791FC82
:10D52000A0633420055578216846FFF70CFD0028DC
:10D5300006D078216846FFF77AFC606440200555E4
:10D54000134E68463146FFF7FEFC00E01BE0002862
:10D5500006D031466846FFF76AFCE064482005556E
:10D560000C4E68463146FFF7EEFC002808D02246F4
:10D57000583231466846FFF764FC60655020055517
:10D58000204606B070BD204600F07CFA0020F8E787
:10D5900001800000018A000010B50446006800F018
:10D5A00071FA204600F06EFA10BD10B50A4686B03A
:10D5B00001466846FFF71CFF0A216846FFF7C3FCD7
:10D5C00000282ED012216846FFF7BDFC002828D085
:10D5D000102001F013F80446002020606060A06075
:10D5E000E06004AA0A216846FFF725FC0499FFF7CA
:10D5F000C6FE2060000016D022460832122168467E
:10D60000FFF7F8FB606018216846FFF79CFC0028D4
:10D6100006D018216846FFF706FCE0810120207340
:10D62000204606B010BD204600F02CFA0020F8E796
:10D6300010B50446006800F025FA204600F022FAF2
:10D6400010BD10B50A4686B001466846FFF7D0FE09
:10D650000A216846FFF777FC002823D0102000F04D
:10D66000CDFF0446002020606060A060E06004AA56
:10D670000A216846FFF7DFFB0499FFF78DFE206063
:10D68000000011D012216846FFF75DFC002808D089
:10D6900022460C3212216846FFF7ACFBA060012045
:10D6A0002071204606B010BD204600F0EBF90020A6
:10D6B000F8E710B50446006800F0E4F9204600F0F1
:10D6C000E1F910BD10B50A4686B001466846FFF77D
:10D6D0008FFE0A216846FFF736FC00281DD0102176
:10D6E0006846FFF730FC002817D0082000F086FFBE
:10D6F000044600202060606004AA0A216846FFF703
:10D700009AFB0499FFF73BFE2060000007D0102130
:10D710006846FFF788FB2071204606B010BD204602
:10D7200000F0B0F90020F8E710B50446006800F0FA
:10D73000A9F9204600F0A6F910BD10B50A4686B03A
:10D7400001466846FFF754FE0A216846FFF7FBFBD7
:10D75000002828D010216846FFF7F5FB002822D0CA
:10D7600018216846FFF7EFFB00281CD0082000F0C6
:10D7700045FF044600202060606004AA0A21684634
:10D78000FFF759FB0499FFF7FAFD206000000CD069
:10D7900010216846FFF747FB207118216846FFF704
:10D7A00042FB6071204606B010BD204600F06AF9C9
:10D7B0000020F8E710B50446006800F063F9204641
:10D7C00000F060F910BD002A01D01F22D1410022D3
:10D7D000C909521C002901D0052AF9DB000A02D030
:10D7E0000220801870470120FBE70000F7B5144CB9
:10D7F0000025A76823691EE024215943C9194E68F2
:10D80000864202D9301A486017E0801B751900263D
:10D810004E600E750E699C460B6AB646002E0AD005
:10D82000019E76193602360A8E607646CE601668FC
:10D830000E6261461160591CDED12361FEBD0000FD
:10D840004C210020F8B51D4B1D481E8886422AD069
:10D850001D46563D9888A98D884224D3E98D88427B
:10D8600021D818461638478816480022417904798D
:10D87000BE4219D9641CE4B20471002901D0491ECA
:10D880004171298E4908A1420DD2027142710120D5
:10D8900058720A480E388178002902D08188491CC4
:10D8A0008180FFF7EFF9F8BD002CFCD0491C4171D5
:10D8B000032CF8D342710271F8BD0000EE23002062
:10D8C000FF0700002420002010B5002803D01128F5
:10D8D00002D0FCF7F1FB10BD024808224168114359
:10D8E000416010BD6820002010B51C4C21782046F6
:10D8F0004068012906D0022929D0032912D1000746
:10D9000017D513E0000711D41548142201785143AC
:10D910000818C188A28B891A0904090CC18002D099
:10D9200002F028FA10BDFEF7B7FA10BD00F05AFE5B
:10D9300010BD6069401C606100F020FB002803D02E
:10D94000207802F025F810BDFEF742FA10BD60788D
:10D95000044980000858804710BD0000682000205E
:10D96000AC2500201C08020010B528DFFFF7ACFF33
:10D9700010BD0B4610B501210907096989B2594349
:10D98000FAF71EFC10BD70B514460E46054628DF9A
:10D99000C82001F041F8012000070069E41C80B2B2
:10D9A0006843A208314629DFC82001F035F870BD70
:10D9B00010B529DFFFF788FF10BD0000F8B54A0059
:10D9C0002B4B520DD6182B4A0C460546142E2BDA3B
:10D9D000002E12DA284BFAF765FE00221346FBF7F9
:10D9E00013F840D2002C02DB002425463BE0600007
:10D9F0004008284337D0214C14E0214F0B46F74014
:10DA00003B402B4331D01C4BFAF74CFE002213460F
:10DA1000FAF7FAFF27D2002C03DA01200005F040C4
:10DA20000419BC4300251EE0332E1EDC33460027BC
:10DA3000143BFF43DF40384217D00F4BFAF7DCFEB0
:10DA400000221346FAF7E0FF0DD2002C0ADA142E5A
:10DA50000CD03420811B012088404019A84200D2FC
:10DA6000641C0546BD4321462846F8BD641CF9E701
:10DA700001FCFFFF9C7500883CE4377E0000F0BF8E
:10DA8000FFFF0F0010B5002823D0124B0022001F0B
:10DA9000196803E0814203D80A4649680029F9D190
:10DAA000002A0AD01368841A9C4204D1006818180E
:10DAB0001060104602E0506000E01860002907D0B6
:10DAC00002680B1A934203D10B68D21802604968AE
:10DAD000416010BD742100200EB511206946087206
